:020000040000FA
:1000000038BA00202D010000350100001101000068
:1000100000000000000000000000000000000000E0
:1000200000000000000000000000000099A1000096
:100030000000000000000000D10200202D0300207D
:100040003F0100003F010000000000003F010000F0
:100050003F010000630300203F0100003F0100005A
:100060003F010000000000003F0100006B03002082
:1000700089A600003F0100003F0100003F01000091
:100080003F0100003F0100003F01000000000000B0
:10009000000000003F0100003F010000C1A500007A
:1000A0000000000000000000000000003F01000010
:1000B0003F0100003F0100003F0100000000000080
:1000C0000448854600F016FB00480047B5AC010027
:1000D000C046C04638BA0020084B1968086820306E
:1000E00080F30988022080F31488BFF36F8F3FBC30
:1000F000AE4608BC04BC62B6184700004840002069
:10010000EFF3108072B6704780F3108870470000DC
:1001100004207146084202D0EFF3098001E0EFF3BA
:1001200008807146004A10474D230000044880476C
:1001300004480047FEE7FEE7FEE7FEE7FEE7FEE7CE
:1001400019A50000C100000030B50B460146002093
:100150002022012409E00D46D5409D4205D31D46CD
:100160009540491B2546954040191546521E002DC5
:10017000F1DC30BD70B500242546002801DA0124E9
:100180004042002901DA01254942FFF7DDFFAC4278
:1001900000D04042002C00D0494270BDF0B51FB4E1
:1001A0000646002082B005464024019100901BE0E5
:1001B000019922460F46304600F0C2F8049A059B8A
:1001C000801A994110D310461946224600F053F880
:1001D000361A8F410197224601200021009F00F02E
:1001E0004AF838184D4100902046641E0028DFDC94
:1001F000019B00982946324607B0F0BDF0B51FB408
:1002000086B000200090019002900698069980B276
:1002100004900798090C020400141143079000276A
:10022000089D099806913E463C4603900398A9B262
:100230000204000C039004982D0C15434843002140
:10024000224600F018F8C719714110340E46402CB0
:10025000ECDB3846029A00F00EF8009A019B8018F9
:100260000090594102980191103002904028CCDB57
:1002700000980BB0F0BD10B5202A04DB0146203AEF
:100280009140002010BD914020239C1A0346E3407A
:100290001943904010BD10B5431A934209D28318F8
:1002A000881803E0401E01785B1E1970521EF9D2B7
:1002B00010BD03460B439B0703D009E008C9121F7A
:1002C00008C0042AFAD203E00B780370401C491CD2
:1002D000521EF9D210BDD2B201E00270401C491E7C
:1002E000FBD270470022F6E710B513460A460446D3
:1002F0001946FFF7F0FF204610BD421C0178401C54
:100300000029FBD1801A704730B50446002003460F
:1003100000E05B1C934203D2E05CCD5C401BF8D054
:1003200030BD30B505460020034600E05B1C93421B
:1003300005D2EC5CC85C201A01D1002CF6D130BD8E
:1003400010B5202A04DB0846203AD040002110BD19
:100350000B46D340D0402024A21A914008431946AE
:1003600010BD0000F0B507460846584087B0C00FE2
:10037000049048000E46590040084908BC1A8841BC
:1003800005D2384631461E4617460B4602465800EF
:10039000400810434DD0300D039040055900400DEA
:1003A000490D0590401A0290402873DA1803012184
:1003B000000B09050843019004980092002806D01C
:1003C0001146019A49420020904100910190029803
:1003D00040210A1A01990098FFF74DFF05460C4687
:1003E0006B4607CB00F098F9C0197141039A0E0DC6
:1003F0000023D71756401A467A40164344D0049A31
:10040000002A2DD0029A012A039A15DC1205C01A7F
:10041000914101263605001C7141D20F059ED2077D
:100420000093019202962A46234600F095F907B000
:10043000F0BD38463146FAE71605234A0F46B21892
:10044000C01AB74101210905001C4F4100187F4126
:10045000114618187941E20F10436D19644113E0F9
:10046000E2076D0815436408C2071443039A012686
:100470001205C01A91413605001C7141CE07400893
:1004800030434908C01851412A46234600F057F925
:10049000CDE7FFE7049801224000C117121A00239C
:1004A0008B4104983146C417381AA141EEE730B4A5
:1004B0000124E407634030BC54E730B40124E4076E
:1004C000614030BC4EE700000000E0FFF0B51FB413
:1004D00088B00B990998002448400999C00F490039
:1004E00049080991C0070B990090490049080B91F0
:1004F00009990898A64608431CD00B990A98084306
:1005000018D0099801244000420D4800410D099877
:1005100024050003000B204309900B980003000BF7
:1005200020430B9050181C4940180022019014469B
:10053000104605E0002001460DB0F0BD032801DAA9
:10054000034600E003239C46C11A0AAE0AE05F009E
:1005500008ADED5B4F00F75B7D430027AA187C4197
:10056000491C5B1E6145F2DD410004AB5A52210477
:10057000120C0A43240C401C0828DFDB019802906F
:100580000099704601910090059B049A079906987E
:1005900000F0E2F8D0E700000DFCFFFFF0B50C46DC
:1005A0005C4085B0E40FE40703944C000026640827
:1005B00059009446490802460296224321D06246D9
:1005C0000A431ED06200570D4A000E032303550D47
:1005D000012402462C492405781B1B0B360B4018BE
:1005E00023432643614600901C46501AB44103D36E
:1005F0000098401C009002E0921800985B4100288F
:1006000003DA0020014605B0F0BD002001210905F4
:100610000746864611E064461D46141BB54106D3C5
:100620006546521BB341744607430C43A646CD07AB
:1006300040084908284392185B4105460D43EAD11A
:100640001046184313D06046194650407140084385
:1006500006D06046101AB34106D20122002306E0FC
:1006600000220123DB0702E00122D243531000984D
:1006700074460105381C6141029C039D00196941C3
:1006800000F05DF8BFE70000FD0300004A00090329
:100690000123090B1B0519430A4B10B5520D9A4251
:1006A00002DA0020014610BD064B34339A4203DCC7
:1006B0009A1AFFF745FE10BD034BD218FFF7DBFD7A
:1006C00010BD0000FF030000CDFBFFFF10B50029A7
:1006D00004DB0124E40740428C412146002B04DB6B
:1006E0001C460123DB075242A341994200D19042AC
:1006F00010BD0000064C0125064E05E0E36807CC5E
:100700002B430C3C98471034B442F7D3FFF7DCFC82
:10071000CC290200FC29020010B5202A06DBCB17E9
:100720000846203A1041C1170B4306E00B4613411F
:10073000D0402024A21A91400843194610BD10B59C
:10074000002B08DA0024401C614192185B411A43D7
:1007500001D14008400010BDF0B51FB482B005467D
:100760000C0003D008460AF09DFA02E00AF09AFA5B
:1007700020300246009021462846FFF77CFD049B6E
:10078000059A04460F4618431143084314D01846EF
:1007900010431BD0009840210A1A18460599FFF70C
:1007A000CFFD05460E46009A05990498FFF763FDB4
:1007B000084305D0012004E02046394607B0F0BDCB
:1007C0000020C11705430E432C43374300990E9870
:1007D0006305401A7905E40A00220C43FD0A0A3039
:1007E00002D500200146E9E70105101969410C9C7A
:1007F0000D9D00196941FFF7A2FFDFE770B58C1866
:100800000578401C6B075B0F01D10378401C2A114F
:1008100006D10278401C03E006780E70401C491C8B
:100820005B1EF9D12B0705D40023521E0DD40B708B
:10083000491CFAE70378401CCB1A921C03E01D7890
:100840000D70491C5B1C521EF9D5A142D8D3002063
:1008500070BD000003B40148019001BDD91F002004
:1008600003B40148019001BDAF05002003B4014865
:10087000019001BD4B04002003B40148019001BD6B
:10088000E703002003B40148019001BD011B0020D3
:1008900003B40148019001BDF305002003B40148F1
:1008A000019001BDA71B002003B40148019001BDC8
:1008B0003120002003B40148019001BDB70600209B
:1008C00003B40148019001BD1B0B002003B4014893
:1008D000019001BDD323002003B40148019001BD64
:1008E000A906002003B40148019001BDD51B0020DA
:1008F00003B40148019001BDEF05002003B4014895
:10090000019001BD172A002003B40148019001BDE8
:100910004D08002003B40148019001BD312400209E
:1009200003B40148019001BD0B20002003B401482D
:10093000019001BD2907002003B40148019001BDC9
:100940007D06002003B40148019001BD793D0020DF
:1009500003B40148019001BD0D3B002003B40148E0
:10096000019001BDD306002003B40148019001BDF0
:10097000413D002003B40148019001BD593D0020D4
:1009800003B40148019001BD431E002003B4014897
:10099000019001BD253C002003B40148019001BD38
:1009A000113C002003B40148019001BDB50F0020A7
:1009B00003B40148019001BD0100002003B40148C7
:1009C000019001BD1503002003B40148019001BD51
:1009D0008D03002003B40148019001BD51010020A6
:1009E000704730B5044689B0002000900190029015
:1009F0000390481C03461D7828465D782D02284345
:100A00009D78DB782D0428431B0618430B780002E1
:100A100018430090481D03461D7828465D782D0236
:100A200028439D78DB782D0428431B0618430B7957
:100A30000002184301900846093003461D782846F5
:100A40005D782D0228439D78DB782D0428431B0612
:100A500018430B7A00021843029008460D300346F3
:100A60001D7828465D782D0228439D78DB782D047B
:100A700028431B0618430002097B08430390501CBF
:100A800001460B7818464B781B0218438B78C978BF
:100A90001B04184309060843117800020843049018
:100AA000501D01460B7818464B781B0218438B7873
:100AB000C9781B041843090608431179000208434A
:100AC00005901046093001460B7818464B781B02FA
:100AD00018438B78C9781B04184309060843117A18
:100AE00000020843069010460D3001460B78184668
:100AF0004B781B0218438B78C9781B0418430906EE
:100B00000843117B00020843079004A80BF026FB62
:100B100068460BF045FA102269462046FFF79AFE18
:100B2000012009B030BD000010B5102000F098FB86
:100B300005490028086000D00120292303A20949A3
:100B40000BF051FE10BD0000744400202E2E5C2ED0
:100B50002E5C737461636B5C63727970745C616545
:100B6000732E630000008302F8B52248224C0179FD
:100B70007D200002214E0227214D002907D00129A6
:100B800022D0022902D14110A1606060F8BD00F0BE
:100B90003BF81020FFF764FEE96804200142FBD017
:100BA000E9680143E960AA69B06BB843B063A26029
:100BB000E26022616261A261E2610023114819468C
:100BC0002262FFF7EBFAE0E71020FFF749FEE96841
:100BD00004200142FBD0E9680143E960AA69B06BD7
:100BE000B843B063002307481946A260FFF7D6FA5E
:100BF0006060F8BD54AE002034AE00200000044018
:100C0000006001400080841EF8B507463848642122
:100C1000026A83159A430262364DA86B0422904300
:100C2000A863A86B02263043A863334C204609F022
:100C3000D1FC39463148FFF787FA64214843401E0A
:100C40006061A06840084000A060E0684008400083
:100C5000E0600A21204609F0C5FCA068B043A0600E
:100C60002021204609F0C8FC60686268C108C900FC
:100C70000820014307200004032382431B041A4376
:100C800062606268120912010A4362606268FF21B1
:100C900009028A43B3031A436260226812091201EF
:100CA00032432260E36810221342FBD0E36813430F
:100CB000E36062688023D209D2011A4363688343E8
:100CC00003436360606888431102084360602168E1
:100CD00004200909090101432160E1684020014223
:100CE000FBD0E1680143E160A86BB043A863F8BDA5
:100CF0004000074000000440006001400048E80157
:100D000010B51421092000F001FB0C4C20680C499F
:100D10000843206016210A2000F0F8FA20680949EB
:100D20000843206015210B2000F0F0FA60680649A6
:100D30000843606006490548086010BD0000034094
:100D40001000100080008000010001000508002054
:100D500034AE0020F1B5224E224C307A0027002814
:100D600005D0012800D1E0683772FFF77FFD1E4AE9
:100D700091680220014391609168814391601B4911
:100D80004B69CD686D086D00CD605B1D0B61CB6854
:100D900001255B085B002B43CB6017622946FFF7F8
:100DA0006BFDFFF76FFD012100220846FFF770FD84
:100DB0000F48A0630F4860630098A16A8A09411E2A
:100DC00089069201890E1143A162FFF767FDE06871
:100DD000010909010A200843E0603572F8BD0000EE
:100DE00054AE00200008025040040250000002509F
:100DF0005555550029417671F7B52B4E2B4F307A5A
:100E00000C46002806D0012800D1F8680020307276
:100E1000FFF72CFD26498868022210438860886805
:100E20009043886023484369C5686D086D00C560BC
:100E30005B1D0361C36801255B085B002B43C36036
:100E40000020086229461046FFF716FDFFF71AFD3D
:100E5000012C06D0022C04D0032C06D0042C06D082
:100E60000AE021460022084604E0022200E00122B6
:100E700003210846FFF70CFD0F48B8630F4878635D
:100E80000098B96A8A09411E89069201890E1143A8
:100E9000B962FFF703FDF868010909010A20084358
:100EA000F860357203B0F0BD54AE00200008025067
:100EB00040040250000002505555550029417671FA
:100EC000F7B5314E314C307A0D46002806D0012856
:100ED00000D1E06800203072FFF7C8FC2C49886818
:100EE0000227384388608868B84388602948426987
:100EF000C3685B085B00C360521D0261C26853088F
:100F00005B0001221A43C2600020086201213846BA
:100F1000FFF7B2FCFFF7B6FC012100220846FFF7FD
:100F2000B7FCE8001D4A10301B498018FFF70CF988
:100F300019494843963080B20299A061206BFF2284
:100F4000120190432A0102432263206B020912011D
:100F50000807000F104320631148A0631148606325
:100F60000098A16A8A09411E89069201890E1143DF
:100F7000A162FFF793FCE068010909010920084319
:100F8000E060377203B0F0BD54AE0020000802509C
:100F900040040250000002507102000031020000C3
:100FA0005555550029417671FFB5444E81B0307AD0
:100FB0001C460F46002807D0012801D14048C068D0
:100FC00000203072FFF752FC3E4988680223184324
:100FD00088608868984388603B484269C5686D08A6
:100FE0006D00C560521D0261C26855086D00012286
:100FF0002A43C2600020086201211846FFF73CFC2A
:10100000FFF740FC012C06D0022C04D0032C08D0A2
:10101000042C04D00AE021460022084604E0012204
:1010200000E0022203210846FFF732FCF8003D01F0
:101030001030022C04D0032C05D0042C08D00AE078
:10104000B800083007E08D21B801C900401802E05F
:101050008520800028181E4A1C498018FFF774F864
:101060001A49174C4843963080B20399A061206B0F
:10107000FF221201904305432563206B02091201F0
:101080000807000F104320631248A06312486063F2
:101090000198A16A8A09411E89069201890E1143AD
:1010A000A162FFF7FBFBE068010909010920084381
:1010B000E0600220307205B0F0BD000054AE0020A8
:1010C000000802504004025000000250710200006B
:1010D00031020000555555002941767110B5074879
:1010E0000024017A012903D10549C968C9004C0CC3
:1010F00000210172FFF7BAFB204610BD54AE00205C
:1011000000080250F8B53B49FF224A7108710024DB
:101110008C710A20C871384804600C723749C8685D
:101120000125800700280FDBCA6802208243104394
:10113000C8603C22002100940098401C00900728C1
:10114000FADB491C9142F6D3FFF70EFD0120014660
:10115000FFF792FB08F0ECFA294E30691021884322
:10116000084330610021C943F1602648816142692A
:101170000C210A43426142698A43426182698A437F
:101180008261214988690122D2039043104388611A
:101190001E49086BD201904310430863886A90434C
:1011A00088621B488463C4631A4CE0692843E06189
:1011B000194908257068284001D1491EFAD2FF2339
:1011C0008733164A16490BF00EFBB0682843B0600F
:1011D000B068A843B060206A0090684608F0F6FF47
:1011E000E06940084000E06101200E49C00208604B
:1011F000F8BD000054AE002034AE002000000250C4
:10120000400402508008025040080250000802507A
:10121000C081025080040250FFFF0000EC12000069
:101220000000820200E100E030B4C01C0B498308DA
:1012300008689B004C680246850702D08008800041
:10124000001DC3189B1AA34202D930BC002070476E
:101250009A180A60E21A4A6030BC7047C443002002
:1012600030B4C01C0B4A830890689B00D4680146C8
:10127000850702D080088000001DC3185B1AA342B6
:1012800002D930BC0020704759189160E11AD16032
:1012900030BC7047C4430020F8B5114CE06901210F
:1012A0000843E0610F49104D08266868304001D1BD
:1012B000491EFAD2FF2387330CA213490BF093FA8D
:1012C000A8683043A860A868B043A860206A00906E
:1012D000684608F07BFFE06940084000E061F8BD27
:1012E00080040250FFFF0000400402502E2E5C2EAE
:1012F0002E5C737461636B5C636F6E74726F6C6C85
:1013000065725C62622E63000000820282088007C0
:1013100010B4800F002A0FD0084B9200D218136827
:10132000062460433F2484408906890EA3438140FC
:101330001943116010BC7047014AF0E7A80402503D
:1013400098040250094A8018C208202A01D208488D
:1013500001E00848203A01230029016802D09340A7
:10136000194301E093409943016070470080FDAF4D
:10137000F8810250FC81025010B540B208F05AFBCF
:1013800010BD10B50622FEF7BFFF002801D00020D7
:1013900010BD012010BD10B509F0C1FC10BD00004A
:1013A00081024118064A4900114082028018054A0C
:1013B000400110400143044841430802000E7047B9
:1013C00010210200408408000101010010B443789C
:1013D0000278190E1B0284781A43230C240422433A
:1013E000C4781943230A194303792406194343791E
:1013F00022431B0219438379C0791B041943000659
:10140000014310BC10467047044A0029D16A01D03C
:10141000014300E08143D1627047000000000440B6
:10142000044A0029116B01D0014300E0814311639C
:101430007047000000000440044A0029516B01D0AD
:10144000014300E081435163704700000000044005
:1014500010B5044608F0CCFE154801210268890742
:1014600014488C4208D014498C4205D013498C4250
:1014700002D013498C4202D14069000C0DE01149A1
:101480008C4208D010498C4205D010498C4202D0C1
:101490000F498C4209D14069000D0007000F04D0AC
:1014A00041001046FEF750FE10BD104610BD000072
:1014B0004040002000000440003000400010004088
:1014C0000080004000100140003001400040014019
:1014D0000050014070B52C4B5A69032109028A4320
:1014E00001242A49002806D0C51FF93D0ED0FF3D32
:1014F000012D45D129E0D8692043D861D869C001C0
:101500003ED40846491E0028F8DC39E05D6A06260C
:1015100035435D625D6A25435D620024002806D084
:10152000C51FF93D05D0FF3D012D05D103E0DC6964
:1015300002E05C6A00E09C6AE50103D40D46491EA6
:10154000002DEBDCFF20013019E09D6A25439D62F0
:101550000024002806D0C51FF93D05D0FF3D012D10
:1015600005D103E0DC6902E05C6A00E09C6AE50109
:1015700003D40D46491E002DEBDC0120400202433E
:101580005A6108F035FE70BD0000044080F520006F
:1015900002484168012211434160FEE70000044017
:1015A00010B40822174B002802D0082803D005E009
:1015B000986A904301E0986A10439862986A0422FE
:1015C00090439862986A08439862986A0121084398
:1015D00098624A020C480CE0002A06D0D41FF93C5D
:1015E00005D0FF3C012C05D103E0D96902E0596A1E
:1015F00000E0996ACC0103D40446401E002CEBDCC9
:1016000010BC70470000044080F5200002480168CB
:1016100001221143016070470000074010B40E4AD8
:101620000E4B0021002806D0C41FF93C05D0FF3C1A
:10163000012C05D103E0D96902E0596A00E0996AFA
:10164000CC0106D41446521E002CEBDC10BC00204A
:10165000704710BC0120704780F520000000044056
:101660000D484168CA024A4081684160C168816092
:101670000368C360D90C5940130A534059400160B4
:101680008801064AC90E515C8009090608430449CD
:101690000843044908407047F8440020002602002F
:1016A00031080402FBFD7EFF0C484168CA024A4033
:1016B00081684160C16881600368C360D90C59408A
:1016C000130A53405940016048078A05400F920FA2
:1016D000C9038018C90F4018401D7047F844002006
:1016E000F7B598B006A802900EA8039002240490C3
:1016F000145F154620461F30C317DB0E1818401123
:1017000047B206AE24323B46304605921EF079F8C9
:1017100000280BD17801A0420ADD60118000E206AA
:101720003058D20E01219140084201D0012400E03E
:1017300000243B463146059A04981EF062F86888FA
:101740000195401C00B20090002C14D000208000B5
:1017500002A90A58294600234431189800F017F8C6
:1017600029781898490049B21EF0BDF8002804D025
:1017700000201BB0F0BD0120E9E701201BB0F0BD47
:1017800000B50978490049B21EF0ADF800BDFFB5BB
:10179000CDB0579C002020560D9002461CA81E4636
:1017A000569F4E990F901EF0EAFB0D984E998000BF
:1017B000139041182CA80E9105460D9A1EF0DFFBE0
:1017C0000F980A9014A80C90099524A800250B9056
:1017D00065570022002E05D02A46314668461EF085
:1017E000CEFB10E06846002D0BDD001FE90701D09D
:1017F0004260001D691004D0426082600830491EBA
:10180000FAD1012000902A460A990C981EF0B7FBE5
:101810002A4609990B981EF0B2FB23466A4609999D
:101820000A980AF0A8FFA420055923466A46099998
:101830000A98A84723466A460B990C980AF09BFF22
:10184000BF1E3DB2002D28DD691189004F98EB06BF
:1018500040580121DB0E0A469A40104201D101276F
:1018600000E000277A0124AE9319C91B14A84F0188
:101870001218B91938180E460746009408930792B3
:1018800009F0B9F833463A4600940899079808F0E9
:10189000DFFF6D1E2DB2002DD6DC4F98012500789C
:1018A00028407BD00026720124A95318AD1B14A830
:1018B0006D011218691828180E46074600940893FF
:1018C000079209F098F834A80090201D0D9D029011
:1018D00014AA0F992B4600981EF066FB002805D02D
:1018E00000992B460846029A1DF08BFF34A80290FF
:1018F000002334A93246E3563CA81EF0A2FA25463E
:101900008035EA6A3CA90298904734A803900023E6
:1019100034A9E3563CA84E9A1EF093FAEA6A3CA911
:101920000398904734A9221D08460D9B1EF01EF90E
:1019300034A80290002334A9E3563CA80E9A1EF066
:1019400080FAEA6A3CA90298904734A800900023E4
:1019500034A93A46E3563CA81EF073FAEA6A3CA959
:101960000098904733463A4600940899079808F043
:101970006FFF234634AA24A914A80AF0FCFE14A978
:101980000D9A4D981EF0FBFA4D9913980D9A401838
:1019900024A91EF0F4FA51B0F0BDFFE7012682E75A
:1019A00010B4002909D0002A0AD0002B02D05C1EF6
:1019B0001C4208D010BC0320704710BC01207047A7
:1019C00010BC022070470160002101724172426028
:1019D000847210BC0846704770B50024012505606C
:1019E0000623837105710379002BFCD1C72A01D02E
:1019F000042300E00123036003199A710A0C641C9C
:101A000003199A710A0A641C03199A71641C021959
:101A10009171C168012252041143C16005710179BD
:101A20000029FCD100F08CFB002070BDF0B58FB018
:101A300000260D466B461E83090B1E82491C03912E
:101A4000110B3446120500D00122891889B2089181
:101A500000F05EF9000B401C81B2A2482A057AD141
:101A6000089B039AD21809928A4274D808250398D1
:101A700004AF29460090FEF767FB0A000999009819
:101A800001D0801A0830081A0830C008009B002ACC
:101A900001D09B1A08338B420ED8009B00219B1A61
:101AA0005B199C4658E0002C56D03B885B193B8064
:101AB000401E491C0028F6D16846008A00285DD0E7
:101AC00003980025201A089013D0039986484919D5
:101AD0000A0386490590571800F01AF9B84204D94C
:101AE000202239460598FFF777FF08986D1CA84219
:101AF000EBD809986946001B0390098A00258842A3
:101B000018D0794869460290098A611849190A0370
:101B10007649571800F0FCF8B84204D9202239461B
:101B20000298FFF759FF6946098A03986D1C401A0D
:101B3000A842E6D86846008A1025059006AF2946D7
:101B40002046FEF701FB05980B46221800292ED0EF
:101B5000E01A10302CE092E0002A01D0634600E049
:101B6000009B2C464C43E34201D12C46A0E7002ABF
:101B700001D0634600E0009B1C1999E708980024F7
:101B800000287BD9584D594F039928460919090354
:101B9000CE1900F0BDF8B04204D9202231462846C3
:101BA000FFF71AFF0898641C8442EDD366E02046D4
:101BB000101A10300109002B02D0E01A103000E09A
:101BC000204690420DD80022E01A4019844658E081
:101BD000002E56D0388840193880491E521C0029E2
:101BE000F6D16846008B07273F0300285BD020070B
:101BF0000FD03E493C4822035518029000F088F867
:101C0000A84206D9BD4204D3522229460298FFF7C2
:101C1000E3FE6846008A2018000712D06946098B47
:101C2000314871180A0331490546541800F070F81C
:101C3000A04206D9BC4204D3522221462846FFF7CF
:101C4000CBFE6846008B0024002817D9264F311997
:101C50000A0326493846551800F05AF8A84208D910
:101C60000F200003854204D3D82229463846FFF7C7
:101C7000B3FE6846008B10348442E8D300200FB0D6
:101C8000F0BD002B01D0604600E020462E465643B2
:101C9000F04201D12E46A0E7002B01D0604600E0C3
:101CA0002046861999E76846008A00250028E5D96C
:101CB0000D4E61190A030D493046571800F028F8F7
:101CC000B84208D907200003874204D3522239467C
:101CD0003046FFF781FE6846008A08358542E8D322
:101CE000CCE70000FFFFFFFF0000054000F0FFFF12
:101CF00070B50C46054600F00BF8A04202D8002053
:101D0000C04370BD202221462846FFF765FE70BD06
:101D1000124A01239178002919D1114901609F21AC
:101D20008171037101790029FCD10E48017811708D
:101D300041785170807890700B480078C006C00ED2
:101D4000022804D11078C42801D112209070907814
:101D5000834001200003181A70470000144500203A
:101D60000103000000040540444000200E490160CA
:101D70009F2181710121017101790029FCD10B4959
:101D80000A780B4802704A78427089788170094954
:101D90000978C906C90E022904D10178C42901D1E4
:101DA000122181707047000001030000000405400B
:101DB000144500204440002010B50A4901604B2121
:101DC00081710021C1710172417281720121017121
:101DD00001790029FCD1102203490448FEF75BFA7F
:101DE00010BD00000510000000040540174500204C
:101DF00060300249407D0870704700004440002078
:101E0000F8B5044601252D030698A94202D20E1802
:101E1000AE4202D90020C043F8BD657902263543A1
:101E20006571667904252E4366710090204600F0A6
:101E300009F86079FD21084060716079284360717C
:101E40000020F8BDFFB581B015460F460C460A9E2E
:101E50000198FFF75DFF874202D2B919814203D989
:101E60000020C04305B0F0BDFF2E2AD901980B2DEC
:101E700050D06B2D4ED0BB2D4CD03B2D4AD0EB2DEE
:101E80004AD0042101221204891801608571210CB5
:101E9000C171210A01724472FF218172C172012154
:101EA000017101790029FCD104981E49E21B101828
:101EB0008A15FEF7F0F9FF34FF3E0134013EFF2E94
:101EC000D4D8002E23D001980B2D27D06B2D25D0F0
:101ED000BB2D23D03B2D21D0EB2D21D0042132026C
:101EE0000A4302608571210CC171210A017244729A
:101EF000FF218172C1720121017101790029FCD198
:101F00000498E21B101807493246FEF7C4F9002076
:101F100005B0F0BD0521B5E70721B3E70521DEE7F0
:101F20000721DCE700040540224A917800291AD1F4
:101F3000214901609F2181710121017101790029ED
:101F4000FCD11E48017811704178517080789070F2
:101F50001B480078C006C00E022804D11078C4289F
:101F600001D11220907092781648C721113A052AA3
:101F70001CD213007B441B79DB189F4402060B0F15
:101F8000130042790A40283202E042790A402032A6
:101F90004271704742790A401832F9E742790A40A3
:101FA0001032F5E742790A400832F1E742790A40F7
:101FB000EEE7000014450020010300000004054086
:101FC0004440002000000540F7B50446FF20A07102
:101FD000E0712072607204222260E368100483437F
:101FE000E3600123237120790028FCD1002904D06B
:101FF000012907D002291ED099E0E06880088000FE
:10200000E06094E0E06880088000401CE060029896
:1020100000287DD0BB20A071FF2006302060AF20BB
:10202000A072E068012189040843E06023712079EF
:102030000028FCD17BE03520FF2102312160A07116
:102040000120207120790028FCD13C4F3B78980773
:1020500043D40520FF2102312160A07101222271A9
:1020600020790028FCD13978180201430120400270
:102070000143002022600623A37122712379002BE3
:10208000FCD1012265790323FB263540657123606D
:1020900023189A71401C23189971090A401C2018B2
:1020A0008171E06851040843E060227120790028C2
:1020B000FCD1204600F044F86079042108436071A7
:1020C0003520FF2102312160A0710120207120798B
:1020D0000028FCD13B789807BBD5E06880088000D9
:1020E000801CE060E068012109040843E0600520ED
:1020F00020607720A0714020A072012121712079F9
:102100000028FCD10298002811D0EB20A07100E03B
:102110000DE0FF2008302060AF20A072E0680122AF
:1021200092041043E060217120790028FCD1A0695D
:1021300040084000A06103B0F0BD0000000405406D
:102140004179C90703D04179490849004171C06804
:1021500080031BD50E483B21FF22063202608171AD
:102160000021C171102202724172FF218172C1727D
:102170000122027101790029FCD106490978026027
:1021800004218171027101790029FCD1704700009E
:102190000000054000040540F8B50446C8B2091A1D
:1021A0000091FF21851801318D4202D90020C043E2
:1021B000F8BD3B49FF27097885290AD000218142D3
:1021C00043D38D4241D9374A1E788A1816705B1C5A
:1021D0003EE0FF2A2DD8344E00993B252660A5719C
:1021E0000D0CE5710D0A25726172A772E77201216B
:1021F000217121790029FCD1002A14D0D107C90FFF
:1022000004D0284D1E7845192E705B1C91420AD2CD
:10221000244F45181E78ED192E705E786E70891C5B
:102220009B1C9142F5D3812220480099FFF7D4FBF3
:1022300011E01C4A00201D7881180D705D784D70EA
:10224000801C9B1CFF28F6D905E0164A8A181770D7
:10225000491CFF29B3D9012121600620A0712171F9
:1022600020790028FCD10420206060790843607147
:102270000220A0710098000CE0710098000A207202
:1022800000986072E068012252041043E0602171FE
:1022900020790028FCD12046FFF752FF0020F8BD2E
:1022A0001445002000040540050001000000054021
:1022B000FFB50D46C8B2FF2101310E1A83B09E4210
:1022C00000D91E46281AEC180190E0B2B34201D999
:1022D000014600E00021271A00910398FFF718FD3E
:1022E000854201D2844203D90020C04307B0F0BD2B
:1022F0000198874203D9381A040A641E00E00024BA
:10230000059F32463B4629460398FFF745FFAD1926
:10231000BE19641E0DD3FF27013733463A462946BE
:102320000398FFF739FFFF35FF3601350136641E8C
:10233000F3D20098002805D0024633462946039878
:10234000FFF72AFF002007B0F0BD0000044612A0EE
:1023500008F062FC1648216808F05EFC15486168C8
:1023600008F05AFC1448A16808F056FC1348E168CC
:1023700008F052FC1248216908F04EFC11486169CE
:1023800008F04AFC1048A16908F046FC0F48E169D2
:1023900008F042FCFEE70000496E204861726420AC
:1023A0004661756C742048616E646C65720D0A003C
:1023B000CCE90100DCE90100ECE90100FCE90100E5
:1023C0000CEA01001CEA01002CEA01003CEA0100D1
:1023D000C01C8108044889000268521802604268E3
:1023E000511A4160704700002C44002030B40E4A5E
:1023F000C01C830811689B00546808468D0702D0F2
:1024000080088000001DC3185B1AA34202D930BCAB
:1024100000207047DB1C9B089B00C9181160E11A63
:10242000516030BC704700002C44002001484068D7
:10243000704700002C4400200148006870470000ED
:102440002C440020014A5160106070472C44002049
:1024500000220120800502600222002904D0012907
:1024600002D0022903D005E08168114301E08168B0
:102470009143816081680122114381608168C907AD
:10248000FCD102607047000030B54278017812023A
:1024900089188BB28278C11C980A83B03F280BD070
:1024A000092852D204007C4424792419A7444D09F8
:1024B0004D22272C4D4D5300184601F095F903B0DD
:1024C00030BD27481C46181802D017283DD108E017
:1024D0004A7808781202801880B2897802F018FAD7
:1024E00006E0087849780902401880B204F0A8FB99
:1024F00021462CE0184600F037F803B030BD1846EE
:1025000000F0B0F803B030BD16481C46C3421CD1E1
:102510007F2268460271087849780902401885B21E
:102520000020009001A9284604F0B4FB014668464B
:1025300001704570290A81700179C17004226946D1
:10254000204600F0F5FE03B030BD1946012000F032
:102550001CFF03B030BD184600F0AAFA03B030BD2E
:10256000FAFBFFFFFBEBFFFF70B5374A054600267D
:10257000801A364C84B0954224D005DC34482818A3
:102580000DD0022805D115E00024182825D01928DF
:1025900041D02946012000F0F8FE04B070BD084685
:1025A000FEF714FF616020603146284600F0DDFE32
:1025B00004B070BD00F02AFE3146284600F0D5FE7A
:1025C00004B070BD0846FEF701FFE160A06031462F
:1025D000284600F0CAFE04B070BD68460480087842
:1025E00049780902401886B26946304602F03AFB43
:1025F000014601946846029401714671310A817165
:102600000188C171090A0172052201A9284600F05A
:102610008FFE04B070BD4A7808781202801886B226
:102620008878C9780902401881B2304605F0E6FC86
:102630006946009408704E70300A8870032228465C
:1026400000F076FE04B070BD630C0000A8AE002060
:10265000FFF3FFFF004870476CAE00200048704752
:1026600060AE0020F0B507463C4800253818092622
:1026700083B00C4600280BD0012832D0022845D068
:10268000082850D03946012000F07FFE03B0F0BD8D
:102690006A4602A901A802F067FB2570694609791C
:1026A000617069460988A17069460988601C090A39
:1026B000E170694609792171694609896171694644
:1026C00009893246090A417169460988817169465A
:1026D0000988090AC1712146384600F029FE03B075
:1026E000F0BD412200212046FEF7DEF82570651C72
:1026F00006F014F9014640222846FEF7ABF84122C5
:102700002146384600F014FE03B0F0BD2570601C71
:102710000022602308F085F832462146384600F052
:1027200007FE03B0F0BD2570661C02F0B3FA0B067D
:10273000020A1A4330707270020C0D042A43B27000
:102740000A02000E1043F0700B0A317173710722F8
:102750002146384600F0ECFD03B0F0BDFFEFFFFF6F
:1027600038B5184D6860184806F066F9174C3022E5
:10277000207100211648FEF797F81548154A0021E8
:102780004260C943016000218160C16000221F21B5
:102790004261016169681346C97901830092217918
:1027A00001220D4806F07CFA00F05CF800F01CF8FD
:1027B0000A4802F0D1F90A4801F03EF8094805F04C
:1027C00057FF38BDD443002011310000A0AE0020D7
:1027D000A8AE0020FF1F0020C4AE00203934000046
:1027E000D5330000C9300000F8B5184C60680028E7
:1027F00000D001206B23164A164909F0F4FF6168E6
:10280000154A0888CD79C01D104004466843FFF77B
:10281000EDFD060001D0012000E000200F4F7123E4
:102820000B4A394609F0DFFF2B46224631460C4859
:10283000FFF7B6F8002807D00024C1197423044A12
:10284000204609F0D0FFF8BD0124F6E7D44300206C
:10285000CC28000000000408FCFF00000000020873
:102860006CAE0020F8B5184C6068002800D001203C
:10287000582316A21E4909F0B6FF61681D4A488810
:102880008D79C01D104004466843FFF7AFFD060078
:1028900001D0012000E00020174F5E230BA2394633
:1028A00009F0A1FF2B46224631461448FFF778F87D
:1028B000002807D00024C119612304A2204609F092
:1028C00092FFF8BD0124F6E7D44300202E2E5C2EA3
:1028D0002E5C737461636B5C636F6E74726F6C6C8F
:1028E00065725C6C6863695F6D61696E2E63000080
:1028F00000000408FCFF00000000010860AE00209A
:1029000070B50F4940280CD30246CD688C68403A18
:1029100001200021FDF7AFFC04400D402C430BD1FA
:102920000CE0421E4D680C6801200021FDF7A3FC5D
:1029300004400D402C4301D0012070BD002070BD2B
:10294000A8AE002070B50B4B012259685207114008
:102950000A000CD0421E012000215D691C69FDF7B0
:102960008AFC04400D402C4301D0012070BD0020A2
:1029700070BD0000A8AE002070B586B000210091A7
:102980000191029103910491694601220A70027932
:102990004A7082798A70C288120ACA70027A0A71F1
:1029A000427A4A71838A02691C06150A25438A7194
:1029B0006C46E571150C1C0425436C4625721C02FF
:1029C000120E22436C4662721E0AA372E672027EE7
:1029D0002273028B120A6273827EA273428B120AE6
:1029E000CA73027F0A74828B120A4A74807F8874C9
:1029F000132221463E2000F0E1FB06B070BD70B509
:102A000088B004460020009001900290039004904A
:102A1000059006906D460A2107902970217969700A
:102A2000A179A970E088010A6846C170217A017114
:102A3000617A4171A28A2169817110060E0A0643EA
:102A40006846C6710E0C10040643684606721002F2
:102A5000090E014368464172130A8272C372284606
:102A600021460C3006221F31AD1DFDF7F3FE214635
:102A70000C35062225312846FDF7ECFE217E6846FE
:102A80000176208B1F22010A68464176A07E2872BB
:102A9000608B6946000A6872207FA872A08B000ACA
:102AA000E872A07F28733E2000F088FB08B070BD5C
:102AB00070B50646F9480025301888B00C46342811
:102AC0007ED201007944097949188F441925387953
:102AD0004751858F99A3ACC2CCFDFCFBFAF9F8F7FE
:102AE000F6F5F4F3F2F1F0EFEEEDEC7979EBEAE9DB
:102AF00079797979797979797979E8E7E6E5E4E3BB
:102B00002046FEF763FCE64A5161106129463046D3
:102B100000F02BFC08B070BDE24825700268214629
:102B20001278627002681288120AA2700068042289
:102B3000C079E070304600F0FBFB08B070BD05F0D6
:102B4000E7FE02462570601C0B4607F06AFE09226C
:102B50002146304600F0ECFB08B070BD062120464F
:102B600002F0DAFF0146304600F0FFFB08B070BD0E
:102B7000617820780902411868460182E178A078DE
:102B800009024118684641822179017561794175D0
:102B9000A179817504ABE41D06222146D81DFDF7FD
:102BA00059FEA17968464177E2798277807D05AB4D
:102BB000033300900193039202916846437D00E045
:102BC0007FE2027D418A008A02F0FAFD014630462A
:102BD00000F0CBFB08B070BD2570002161700222AF
:102BE0002146304600F0A4FB08B070BD2178601C7F
:102BF00002F0B6FD0146304600F0B7FB08B070BDEC
:102C00002178601C02F0EEFF0146304600F0ADFB7B
:102C100008B070BD207802F0B7FD0146304600F0E4
:102C2000A4FB08B070BDA2786178120289182379DC
:102C3000E2781B02D21820786379A47989B292B223
:102C4000009402F0AFFF0146304600F08EFB08B062
:102C500070BD6178207802F087FF0146304600F0B1
:102C600084FB08B070BD617820780902411868467D
:102C70000180E178A07809024118684641802179F5
:102C8000017161798171A41D0294A1794171E0798A
:102C9000217A1AE00AE2FFE1EEE1E3E1C5E1A2E117
:102CA00090E178E157E149E13EE135E125E110E1CC
:102CB000FAE0DDE0D0E0BAE0ADE099E08FE05EE080
:102CC00053E048E03FE032E029E00902411868465D
:102CD0008181A17A607A090241186846C181217B0D
:102CE000E07A0902411868460182A17B607B0902F3
:102CF000411868464182217CE07B09024118684600
:102D00008182A17C607C090241186846C18203A9C6
:102D100002F0F6FB314600F038FB08B070BD02F05F
:102D200017FC0146304600F020FB08B070BD25704E
:102D3000651C02F021FC287002222146304600F07A
:102D4000F7FA08B070BD02F084FB0146304600F08F
:102D50000CFB08B070BD611C207802F076FB0146C8
:102D6000304600F002FB08B070BD611C207802F014
:102D7000F3FC0146304600F0F8FA08B070BD617807
:102D8000207809024018E278A17812028A18694670
:102D90000A806279217912028A1869464A80E279AA
:102DA000A17912028A1869468A80627A217A12020F
:102DB0008A186946CA80E27AA17A12028A1869469C
:102DC0000A81627B217B12028A18694680B24A819D
:102DD00002F044FB314600F0D8FA08B070BD20463E
:102DE00002F0CAFD0146304600F0BFFA08B070BDDF
:102DF000617820780902401880B26070020AA270DF
:102E0000E11C02F01BFC207008222146304600F035
:102E10008FFA08B070BD617820780902401880B23E
:102E200002F06CFC314600F0B0FA08B070BD002032
:102E300000900190029003906D4604902870214606
:102E400022461031681C02F087FB112229463046C9
:102E500000F06EFA08B070BD2570601C082106F005
:102E600007FA09222146304600F062FA08B070BD28
:102E700061782078A41C637A227A1B020902D21896
:102E80004018234680B292B20A33214602F0BEFEB9
:102E9000314600F07AFA08B070BD0000FFDFFFFF96
:102EA000A8AE0020D843002061782078090240189D
:102EB00085B2A11C284602F07BFB002100916946E7
:102EC00008704D70280A88700322304600F030FAEE
:102ED000E1E7617820780902401884B2204602F0C8
:102EE0004FFB00210091694608704C70200A8870E1
:102EF0000322304600F01CFACDE72570651C05F072
:102F000011FD02460B46284607F08BFC092221469C
:102F1000304600F00DFABEE72078FDF71BFF0021D8
:102F2000304600F022FAB6E720786178A278FDF703
:102F3000C7FF0021304600F018FAACE7FEF7CEF8E4
:102F4000002222706070000AA070214603223046E1
:102F500000F0EEF99FE7617820780902401885B209
:102F6000E178A0780902401881B2627920791202D2
:102F7000801882B2284602F067FC014600200090CB
:102F8000684601704570290A8170032269463046FF
:102F900000F0CEF97FE703A902A802F0E3FA0021CE
:102FA000009168460191017001894170090A8170A0
:102FB0008189C170090A017105226946304600F015
:102FC000B7F968E76178207809024018E278A178BB
:102FD0001202891880B289B202F07CFC2946304680
:102FE00000F0C3F957E706AB05AA04A903A802F04D
:102FF0004BFB00210091019168460291017081898B
:103000004170090A8170018AC170090A0171818ABF
:103010004171090A8171018BC171090A017201466E
:103020000922304600F084F935E7617820780902FA
:10303000401884B203AA02A9204602F047FB0146C9
:10304000002000900190684601704470210A817050
:10305000017AC170017B017105226946304600F09A
:1030600067F918E720786178A27802F061FC0146E0
:10307000304600F07AF90EE76178207809024018AE
:10308000A178E2782379647980B2009402F0C0FCE0
:10309000314600F07AF9FEE620786178A278FDF7F3
:1030A000ABFE0021304600F060F9F4E6207861784C
:1030B000A278E378FDF778FF0021304600F055F95B
:1030C000E9E631460120E4E770B5104C657A207AD4
:1030D000854216D0A84214D0002C15D0207AA17AAF
:1030E000084061684843216840188178C91CFFF78F
:1030F000CBF9002C02D0207A401C2072207AA84202
:10310000EAD100F0A9F870BD0020EEE760AE002023
:1031100070B50646002920D0087801281DD1214C21
:10312000657A207A854216D0A84214D0002C35D07A
:10313000207AA17A08406168484321684018817864
:10314000C91CFFF7A1F9002C02D0207A401C207284
:10315000207AA842EAD100F07FF8F0071DD0114C88
:10316000657A207A854216D0A84214D0002C17D058
:10317000207AA17A08406168484321684018817824
:10318000C91CFFF781F9002C02D0207A401C207264
:10319000207AA842EAD100F05FF870BD0020CEE7A7
:1031A0000020ECE760AE002010B503480121007953
:1031B00005F086FC10BD0000A0AE0020F7B50F4F53
:1031C0001546F86B002816D0EE1CB0B205F02CFFA7
:1031D000040010D00420207000996170A5702A4668
:1031E000E01C0199FDF736FB711EFA6B601C9047DD
:1031F000204605F03FFF03B0F0BD000060AE0020A8
:10320000014AD1631064704760AE002010B50E48CB
:103210000C4A00214260C943016000218160C16005
:1032200000221F214261016108494968C97901836F
:10323000074805F039FE0748417D017503F0F0FDB0
:1032400010BD0000FF1F0020A8AE0020D4430020C6
:10325000C4AE002060AE0020F8B5314C607D217D09
:103260000C3488424DD0009081424AD02D4D002C24
:103270001CD0207AA17A084061684843216842182E
:10328000517810780902401881B2D0789378000202
:10329000181883B2032000030E0508400121360DE3
:1032A0000903121D884203D1012102E00022E7E751
:1032B000022128781F46074301D1022916D0002891
:1032C00001D001291ED000202870304603F036FFBF
:1032D0003A281BD0072819D0002C02D0207A401C95
:1032E00020720121304600F060F806E001202870CD
:1032F000002C02D0207A401C2072217A0098814252
:10330000B5D1F8BD002028700221DEE7064800781C
:103310000028F6D10421054805F022FDF8BD000083
:1033200060AE0020D4430020C8AE0020C4AE002010
:10333000F8B50646D01C15460F4680B205F074FE5F
:10334000041E11D0012101706670310AA1702A4655
:103350003946E01CFDF77EFAEA1C21460E20FFF7F5
:103360002DFF204605F086FEF8BD38B500230093FA
:1033700001246B461C705870000A9870D9700422A2
:1033800069460E20FFF71AFF38BD08B500230093E9
:103390006B461870012058709970080AD870042282
:1033A00069460F20FFF70AFF08BD00B583B0002271
:1033B0000092019201236A4613705070000A9070C7
:1033C000D170080A1071052269461320FFF7F6FE36
:1033D00003B000BDFFB5174F81B0386C1D46002803
:1033E00023D06E1DB0B205F01FFE04001DD00220D8
:1033F00020700299601C022919D001221203019940
:103400000905090D11430170090A41708570290AE7
:10341000C1702A46001D0399FDF71CFA711E3A6C13
:10342000601C9047204605F025FE05B0F0BD012246
:103430005203E4E760AE002070B50446007884B023
:1034400012287DD201007944097949188F44081E59
:10345000345764798B9AAEE3FEFDA2FCFBFAF9F8CF
:103460000520FFF74DFA00286AD00020009021794E
:1034700068460170A1794170E0880422010A68461B
:103480008170217AC17069460520F5E00820FFF7B8
:1034900037FA00287ED0002000902179684601701C
:1034A000A1794170E0880422010A68468170217A7E
:1034B000C17069460820DFE00C20FFF721FA0028E0
:1034C00068D0002000900190217968460170A179B0
:1034D0004170E0880822010A68468170217AC17033
:1034E000A17A01716089010A68464171217B81716D
:1034F000A089010A6846C17169460C20BCE0102011
:10350000FFF7FEF9002845D0207900210091694697
:10351000087001221020AFE03020FFF7F1F90028F9
:1035200038D000200090217968460170A17941705F
:10353000E0880322010A68468170694630209BE0DA
:1035400028E0E2882189002000900190012368464C
:1035500003704270120A8270C170090A017105225B
:103560006946132088E05720FFF7CAF9002811D0D8
:1035700000200090A08869460870000A4870022266
:10358000572079E00A20FFF7DDF9002804D0204613
:10359000FFF735FA04B070BD0120FFF7D3F900281A
:1035A000F8D02046FFF7E8F904B070BD0220FFF71D
:1035B000C9F90028F8D08B4840780028F4D0207A48
:1035C0000C3005F031FD061EEED002210170012104
:1035D0007170A17AB170E17AF170351D2146062231
:1035E0000C312846FDF736F9207AA871ED1D227AB4
:1035F00028466168FDF72EF9207A617A401901703A
:10360000227A31463E200C32FFF7D8FD304605F0D5
:1036100031FD04B070BD0320FFF794F90028F8D005
:1036200000200090019002900321684601702179EA
:103630004170A1798170E088010A6846C17006E096
:1036400099E0B6E092E08FE05EE039E018E0217AA0
:10365000017120890A22010A68464171A17A8171AB
:103660006089010A6846C171217B0172A089010A43
:103670006846417269463E20FFF7A0FD04B070BD68
:103680000420FFF75FF90028F8D000200090019097
:10369000029068460423037023794370A3798370F2
:1036A000E28801A8130A6A46D3700822A118FDF720
:1036B000D1F80C2269463E20FFF780FD04B070BDB2
:1036C0000520FFF73FF90028F8D000200090019076
:1036D0000290039068460522027022794270A18808
:1036E000C01C0A0A69468A700822A11DFDF7B2F8BB
:1036F000A07B6946C872E0890D22000A08733E204B
:10370000FFF75CFD04B070BD0720FFF71BF9002830
:10371000F8D00020009001900290684607220270C5
:1037200022794270A1880A0A69468A70A279CA7011
:10373000E1880A0A69460A71227A4A7121890A0ACD
:1037400069468A71A27ACA7161890A0A69460A724F
:10375000227B4A72A1890B22090A817269463E20A6
:10376000FFF72CFD04B070BD082000E00920FFF732
:10377000E9F804B070BD0C20FFF7E4F80028F8D099
:103780000020009001900C21684601702179417061
:10379000A1798170E0880622010A6846C170217A09
:1037A0000171617A417169463E20FFF707FD04B05F
:1037B00070BD1420FFF7C6F80028F8D00020009054
:1037C00014216846017021794170A0880422010A01
:1037D00068468170A179C17069463E20FFF7EEFC12
:1037E00004B070BDD8B1002070B58205120F0F2A49
:1037F00004D001460120FFF7C8FD70BD0446002536
:1038000080060A46800E06D003280DD021460120EE
:10381000FFF7BBFD70BD0621104604F021FC2946D0
:103820002046FFF7A2FD70BD0878FDF7A5FD2946EB
:103830002046FFF79AFD70BD0149086170470000FE
:10384000A0B1002070B50E4BDA889C88A24201D34B
:10385000072070BD012810D800290ED0D5001C68A3
:10386000521C6419DA80A0712046FDF794FD0121F5
:103870002046FDF767FD002070BD122070BD0000DE
:103880006C44002010B50A7882B01407240F6A46F1
:1038900014700A789206D30F6A4653700A7852065B
:1038A000D30F6A4693700A78D3096A46D3704B786F
:1038B000091D1371032C03D0052C01D1222B02D03A
:1038C000002002B010BD0A46694600F02DFB02B090
:1038D00010BD7047F1B50098002800D00120C72323
:1038E00018A2224908F07FFF009D284664308646D2
:1038F00000200246583500210426D3009C460123AF
:10390000AC5C1F468F403C4205D067467F1874462A
:103910002754401CC0B2AC5C4F1CBB401C4206D0BC
:1039200063465B1874465B1C2354401CC0B2891C60
:10393000761EE4D1521C052ADDDB009980314873E4
:10394000F8BD00002E2E5C2E2E5C737461636B5CE0
:10395000636F6E74726F6C6C65725C6C6C5F636FBE
:103960006E6E5F636F6D6D2E6300000000000602D7
:1039700070B50446603005781C480068002800D007
:103980000120FF235F331A4A1A4908F02CFF01F087
:10399000D7F9082D00D30725174A6900515A6269E3
:1039A0000818216885B20020891A00290DDD084613
:1039B000FCF780FF7D26F6003146FCF7C5FB01468B
:1039C000284648433146FCF7BFFB4034218A0B4A66
:1039D0005143FF22F5329639814200D21046084900
:1039E0000979002900D04622101870BDE04300205C
:1039F00044390000000005025A4400207102000012
:103A000054AE0020F8B5040001D0012000E00020F1
:103A1000324B334A334908F0E6FE2546FF358135FF
:103A2000A87F697F884201D3012000E00020D523D0
:103A30009B002B4A2C4908F0D6FEA87F697F0027FF
:103A4000401AC3B22046FF30A130067982789642F0
:103A500007D14770C7708770002B3CD00121A17738
:103A600039E0002B09D09A420AD8238C5B07DF1774
:103A70007F1C4770DB0FA37713E04770A77710E038
:103A8000278C931B7F0700D55B1C994201D201272D
:103A900000E000274770994201D3012300E0002392
:103AA000A377238C921B5B0703D5002901D0491E05
:103AB0006977FF34C134697F2678914201D9134672
:103AC00000E00B46F3182370C378914200D91146E9
:103AD000511A5918C170C1788170F8BD53030000A4
:103AE00044390000000006026666FFFFF8B5044690
:103AF000407E0D46002812D0E889A18C401A012191
:103B000080B2C903884202D8491E88420CD91D4898
:103B1000694640680090204604F0D0F8F8BD0121C5
:103B2000204604F0EFF8F8BD697A2B7A0A0E0E02EF
:103B300000209B190146AE7A5141320C36049E1981
:103B4000EB7A51411A0A1B06F31851412A7B1818C7
:103B5000514101F071FC00280ED00121A420015533
:103B600020469C30EA68A96842600160A220015B9F
:103B7000204600F025F8F8BD1E220121204603F062
:103B8000F7FEF8BDA01E020010B505480021C18057
:103B9000818800688A010021FCF786FE002010BDA4
:103BA000F0AF002010B505480021C1808188006871
:103BB000CA000021FCF778FE002010BD6C440020F4
:103BC000F3B50446C38C81B0808C02991A1A25463D
:103BD000081A4035298A894E401E71432646FF3611
:103BE000A136904229D2029FBB4226D0171A7943B0
:103BF0002046FCF765FEE08CB9B2C01BE08420468D
:103C0000FCF764FE2046FFF7B3FE7D49C830096823
:103C10004A8B898B51180818FCF75EFEA06021685A
:103C20000B1A7849CA6840208243CA608B61CA680F
:103C3000012382431043C8607371E18C0298814272
:103C40007DD127468037F87B002820D0A98A0A201A
:103C500041433846DC3005F083F8288AB98A884227
:103C600003D02146002002F0C5FB0020F873387C09
:103C7000A881788AE881B88A2882F88A6882388B95
:103C8000A882207F400840002077012070712146E3
:103C9000A031087900281FD0002008717D7F3B7F6C
:103CA0002A0E2D025D19BB7F50411A0C1B04EB1824
:103CB000FD7F50412A0A2D065B1950410A78191CD4
:103CC0005041A165E0652046FFF704FE207FFD21FD
:103CD00008402077012070712746FF378137B87D73
:103CE00000282CD0BD7C680700D50325F87E032171
:103CF0004903A84205D0226A01238A435B03D218F4
:103D000022620022BA753877FD76207FFB221040B0
:103D100020770122206AD202904342042062920F4F
:103D200010D0884320623848FF210068D131201A22
:103D3000FCF720FA81B22B461A46002000E05AE038
:103D400002F0FEFBF87E2546C035032803D0387FFD
:103D5000032827D04DE03A7F69682868032A07D0F6
:103D6000A9221201130480B2184389B2120411432C
:103D70006B88020C9A4203D1EB880A0C9A4238D025
:103D8000696028602048FF210068D131201AFCF7C3
:103D9000F1F96988009180B22B88EA88A98802F03D
:103DA00049FB26E02988A8880A04520B703292B297
:103DB00089B21304194303045B0B70339BB280B2C6
:103DC0001F0438436F88BA4202D1EA88934210D068
:103DD000296068600C48FF210068D131201AFCF787
:103DE000C9F96988009180B22B88EA88A98802F015
:103DF00021FB0120707103B0F0BD0000E20400005F
:103E0000E043002000000250DC43002070B50400B5
:103E100001D0012000E00020354B36A23F4908F0D8
:103E2000E2FC2046FFF7EEFD0020FCF75BFD0120E1
:103E3000FCF75EFDA08E0025E16800283AD0A5863B
:103E400020686061607E012828D1A06A002825D002
:103E500033480068818B408B0818FCF73DFDA16852
:103E600022680B1AA16A0126881AB607B04200D947
:103E7000501A984205D3E08C012802D9208C000604
:103E800013D5FF209C30005D264940004018403883
:103E9000C08FFCF721FDA16A081A2060E08E02287D
:103EA00006D380B2801EE08618E00420E086F8E7A2
:103EB000E58613E0E08E062801D2401CE08680B241
:103EC000401E012804D8487D062801D2401C4875B0
:103ED000E08E062802D3402003F0A2FBA562206AF0
:103EE00080218843206201212046FCF707FD70BD38
:103EF000EA0400002E2E5C2E2E5C737461636B5CF2
:103F0000636F6E74726F6C6C65725C6C6C5F636F08
:103F10006E6E5F636F6D6D2E630000000000060221
:103F2000E043002054440020F0B50646F5480D4615
:103F300081799DB0F4480068007C81427ED253783C
:103F40001178180E1B0294781943230C2404214382
:103F5000D4781843230A1843137924061843537955
:103F600021431B021843009101901990D4798C468B
:103F70009179200E2402177A21433C0C20433F0400
:103F8000547A3943270A2406931D2143947A5B7996
:103F9000384320431B021843029103901691179057
:103FA000517B107B09024018917BD37B09041B06CF
:103FB000C91840180490507C917C000209044018F4
:103FC000117C40180590D17C08A88171517D107D2D
:103FD0000902411868460185D17D907D090241188A
:103FE00068460184517E107E09024118684641846A
:103FF000D17E907E0902411868468184547F137FE8
:10400000210E24021C321B19002094784841210CF7
:1040100024041B19D4784841210A24061B1948415D
:104020001479191C6041069107905079C106C90E98
:1040300008A881725079410908A800E096E0C17291
:1040400000200E900F900C900D90B7683C462034E5
:104050002279D00703D0AB498868C96802E0AB4930
:10406000086A496AD207E378D20F062B7ED0022B6A
:104070007CD0EB78934279D1169A179B42404B4003
:104080001A4373D1A8781490604619991191109031
:1040900010AA0120149901F09BF9002866D1E0785C
:1040A00001280CD15020C15D149881425ED1B96CB9
:1040B000F86C109A119B5140584001437ED16846DC
:1040C000018D008C814279D808A98979002975D0A1
:1040D000421E082A00DD082291426FDC8C4A811FB3
:1040E00091426BD26946898C8A4B0A460A3A9A42B7
:1040F00064D26A46528CFF23F4339A425ED8864BD0
:10410000521C5A4350439A005143814256D90020D1
:104110007C496072087020702879C0002830FCF754
:10412000DBFB396C47180120FCF7EEFB044600F07E
:1041300097FE0420B46030750020F0750220707581
:104140006846E660149001206076A9783D2001550C
:10415000204606223E301499FCF77CFB04986064EC
:104160000598A06408A88179204600E026E0403048
:10417000169081816946098DC1816946098C018249
:104180006946498C41826946898C818207990698E3
:10419000E165A06508A8C17A20466030017008A9D1
:1041A000897AC1702046FFF795FB204680300021B8
:1041B000179081736878012803D00CE000201DB0AF
:1041C000F0BD5648007B012805D117998873606CB3
:1041D000010C41402187204602F086FF1698504985
:1041E000C089401C4843FCF777FBC01920601920A8
:1041F0004001FCF771FBA0601698818A0A204143B8
:104200002046FF305D3004F0ABFD2646C036B18855
:104210002046FCF77FFBF788B84204D2B1882046DD
:10422000FCF778FB074631882046FCF773FB014614
:104230007088814203D231882046FCF76BFB3A1824
:10424000169837498089FF324843491041182E4853
:104250002D320068007E5043884200D80846FCF7A3
:104260003BFB2168401860602046FF30B93001D028
:10427000417A0172302004F0B3FE2A4F06002FD09D
:1042800007203070002030713868FF21201AD131AA
:10429000FBF770FFF080607E3072A8787072019931
:1042A0000098716130616846008C30836846408CAC
:1042B00070836846808CB08308A8C07AB077149960
:1042C000304606221F303831FCF7C4FA14993046C4
:1042D000062225303031FCF7BDFA304603F03EFBB4
:1042E0003868FF21201AD131FBF744FF179980B2BB
:1042F000897B02F034F803488179491C81710120DF
:104300001DB0F0BDD8B10020E0430020A0B10020D6
:104310007B0C0000770C0000C409000098AF00205F
:10432000E2040000DC43002010B500F0C3FE04F0FE
:10433000D3FA05480021016041600121017203495F
:10434000062005F033FE10BDD8AE002099290020CC
:1043500038B5427E002A11D04A8A838CD21A0123B2
:1043600092B2DB039A4202D85B1E9A420AD91C49D8
:1043700009680091694603F0A1FC38BD002103F0F3
:10438000C1FC38BD4B898A89934224D80B7A002B13
:1043900021D0541E082C00DD0824A3421BDC114B45
:1043A000921F9A4217D20A8A1B1F0A3A9A4212D2C5
:1043B000CA89FF23F4339A420DD80246CD688C682F
:1043C000803209695561146101239161D373518B66
:1043D000FFF7F6FB38BD1E22002103F0C9FA38BDF5
:1043E000A01E02007B0C0000F0B50546B8228889AB
:1043F000525B08318FB0904201D2064600E016466B
:104400001B2E01D21B2002E0904200D31046260C46
:1044100036040A90384C0643088824680C94647C5F
:10442000A04201D2074600E027461B2F01D21B20E5
:1044300002E0A04200D320461B0C1B04034308905B
:10444000D0009E467030FF2783B29C37E0007F5D2E
:104450007030032F06D13D20930100011B18A401E9
:104460009BB22018CC889C4200D91C46B6B22704C7
:104470003E4300964988A446814200D901467446CD
:104480000E04A4B23443A6460B912C46C0342788B0
:104490000A990126B9420BD1A7880899B94207D1D8
:1044A00061888C4504D1E1880B9F8F4200D10026A2
:1044B000774600996760216069460A820C994A7CB8
:1044C00069468A824B82C88204A9284602F0D2FF3C
:1044D000002E0ED00948FF210068D131281AFBF7C1
:1044E00049FE6188009180B22388E288A18801F0AA
:1044F000A1FF0FB0F0BD0000E0430020DC4300202E
:10450000F0B50446012083B0024600900889234696
:10451000FF33054681331B3D08310193E12D25D240
:104520008B881B2B22D3FB2B20D8CD88FF26493626
:10453000B5421BD3494B4A4FEB18BB4216D3494BEC
:104540009D4213D84B88B34210D3444E9E19BE42AD
:104550000CD3444EB34209D8019EF67E032E07D1F8
:10456000A9263601B34201D3B54201D200220092FE
:104570002546C0356F682E68002A44D02246803216
:104580008B889646128F9C46934201D2634600E088
:1045900013461B2B01D21B2304E0944501D2634632
:1045A00000E01346360C36041E4373469B8FB44618
:1045B000984201D2064600E01E461B2E01D21B2067
:1045C00002E0984200D318463F0C3F04019B07438A
:1045D0007046DB7E408F032B04D190013D221201F7
:1045E000801880B2CA88824200D81046624696B2CD
:1045F000000406437046C08F4988884200D30846AD
:10460000BFB2000407432988B0B288420DD1A988FF
:10461000B8B2884209D16988300C884205D1E9884E
:10462000380C884201D1002000906F6020462E6037
:1046300001F0BFFB009800280ED00B48FF21006856
:10464000D131201AFBF796FD6988009180B22B8842
:10465000EA88A98801F0EEFE03B0F0BDB7F7FFFFCE
:104660004702000090420000DC430020F8B50A46F3
:1046700005460978854C501C61711A2979D2844B02
:104680008A009A58002A74D0192972D20A007A44F2
:104690001279921897440C29369CB9D9D9364D4DC8
:1046A000D9D93ADE48F5F5E29797536E737F8600C5
:1046B000764902780A72837842781B02D2184A81BE
:1046C0000379C2781B02D2188A81837942791B024E
:1046D000D218CA81037AC2791B02D2180A82427A9E
:1046E000807A000210184882A4E06A4E074601460C
:1046F00005223046FCF7AEF8B979787909024018FE
:10470000F08094E061490078087293E05F49027894
:104710000A72837842781B02D2184A81C2780079E3
:1047200000021018888185E05B48007E000720D5D4
:1047300080E0564EFCF74AFEF160B06077E0564AE2
:10474000127E920615D54378027850491B02D21882
:104750000A81C37882781B02D2184A814379027990
:104760001B02D2188A818279C07900021018C88190
:1047700060E072E0484A127E92066ED5E3E7464A50
:10478000092392691B021A427BD0404902780A72BF
:10479000407848724EE0404A092392691B021A424F
:1047A0006FD0F2E73C4A092392691B021A4268D093
:1047B000364902780A7242784A728278C0780002DA
:1047C0001018488136E03448007EC00659D531E0E3
:1047D000314A127ED20754D02E4E07460146082297
:1047E0003046FCF737F8797A387A09024018308178
:1047F0000A373046082239460A30FCF72BF839468A
:1048000008310422304612300FE0234A127ED207CC
:1048100037D0204E0746014608223046FCF71AF8EA
:1048200039463046083104220830FCF713F8607925
:104830001A2805D26079194A2179125C914217D061
:10484000C1B2284603F05EFAF8BD1348007EC007E7
:1048500017D0EFE70D4900789BE712E00E4A127E71
:1048600052070ED5094902780A7240784872E1E78A
:10487000810007484258002AE6D00449284690475C
:10488000F8BD284603F03EFAF8BD0000D0AF002086
:10489000AC1E0200D8AF0020A0B10020141F0200FF
:1048A00070B50446407E1849002802D0012807D080
:1048B0000CE04879002809D04879401E487105E08D
:1048C0008879002802D08879401E88712646FF36F4
:1048D0008136F079B579002802D1132D00D1162543
:1048E0000A48FF210068D131201AFBF743FC80B24F
:1048F000294601F0B7FD2046FF305D3004F0D4FAC0
:104900000020F06070BD0000D8B10020DC43002022
:10491000FF22D132504308B50E4A126880180AD0DF
:10492000027E002A07D00246FF328132D379002B63
:1049300003D0132008BD022008BDD268002A01D090
:10494000002008BD6A461170694603F0B7F90020DF
:1049500008BD0000DC430020F0B50446407E89B06D
:1049600000287BD020460831E4300F460822064656
:10497000FBF770FF25463889C035688439462846DC
:1049800008220A314C30FBF765FF284639465C3077
:10499000042212310290FBF75DFF082104A804F005
:1049A00067FC06A80421074604F062FC04A920461F
:1049B00002F0C9FD20460121E0300170417008225B
:1049C00004A93430FBF746FF2846394660300422FC
:1049D0000746FBF73FFF28460D2200217030FBF70A
:1049E00063FF2846082275300299FBF733FF607E8B
:1049F000012839D0802038752046FF300D22002153
:104A00004D30FBF751FF2046FF300822523002990B
:104A1000FBF720FF607E012828D00021FF205130C5
:104A200001551348FF210068D131201AFBF7A2FB82
:104A300087B26D8C102004F0D3FA04000BD00B2049
:104A40002070A78008223146A01DFBF703FFE581F7
:104A5000204602F083FF09B0F0BDFFE703212046A6
:104A600003F050F909B0F0BD0020C4E78021D5E77C
:104A7000DC43002070B50446407E88B0012861D038
:104A800020460831FF300D4608221530FBF7E2FEC4
:104A900020462946FF302130042208310546FBF725
:104AA000D9FE0020009001900290039004900590A0
:104AB000069007902046FF30102269460D3007F01F
:104AC00070FB2046102204A9EC3007F06AFB204658
:104AD00004AA6946FC30FBF784FF2046FF300D2214
:104AE00000213130FBF7E0FE2146FF311D31084641
:104AF00008220E461930FBF7ADFE607E012827D054
:104B0000802028752046FF300D2200214D30FBF714
:104B1000CBFE2046FF30082231465230FBF79AFE8A
:104B2000607E012816D00021FF205130015501215F
:104B3000E1200155204603F01FFD204601F028F931
:104B400008B070BD0421204603F0DCF808B070BD49
:104B50000020D6E78021E7E70149C86070470000E0
:104B6000A0B1002030B5427E83B0002A15D00D4A96
:104B70000D7A9169D4690A462A400546002380359A
:104B80006B63090A2A6309020A43234369460193B6
:104B9000009202F02CFD03B030BD497903F0B2F869
:104BA00003B030BDA0B1002030B5044616480B7AE2
:104BB000806983B018402346002280335A6318630B
:104BC0002033DD79002D19D0DA718B68C9681B0A92
:104BD0001B02034311430D48019100930068FF211C
:104BE000201AD131FBF7C6FA81B26A46002001F0E3
:104BF000BAFC204601F0DDF803B030BD497920460B
:104C000003F080F803B030BDA0B10020DC430020E9
:104C1000F8B50446002503216846009504F028FBFA
:104C2000684680782E028106890E68464031817080
:104C3000427803782804000E360E00043602304312
:104C40002D0E12020904284351182070020A6270C6
:104C5000000CC918A070E170080A2071080C60717E
:104C6000F8BD000010B50C46FF21D131484308497A
:104C7000096840180AD0017E002907D08030C06D35
:104C80000A21FBF761FA2080002010BD022010BD30
:104C9000DC4300200149086A496A7047A0B100203E
:104CA000FF308130C07E012804D0022802D00328C2
:104CB00001D000207047042070470000F0B4054682
:104CC000C035EC881D4E2B466103C0338919DA7E4E
:104CD000090C0127521E9740FAB2477E002F04D0DC
:104CE000077F7F0706D5DA7D08E0008C000505D533
:104CF0009A7C03E0008CC00400D5DA7C900703D5D1
:104D0000A0038019010C13E0500711D5987E1B21D8
:104D1000012802D0022806D00AE0FF3C7F3C201187
:104D2000093881B204E0FF3C913CA011093881B2FE
:104D3000A888884200D30846F0BC70470000F2FF04
:104D40000148808870470000E443002005490120A5
:104D50008969CA0500D50320090501D50421084346
:104D600070470000A0B1002010B4064B1C682478E6
:104D7000047018684088088018688088108010BC0B
:104D800070470000E04300200148007970470000B0
:104D90006C44002070B5040001D0012000E0002028
:104DA000284EDA231EA2314607F01DFD264D002CA9
:104DB0002C6001D0012000E00020C323234A3146AB
:104DC00007F011FD2868417C1B39E12904D2007EDF
:104DD000002801D0012000E00020DF2310A21C49A0
:104DE00007F001FD1B49002008701B4803F024FE5A
:104DF0001A490874FBF798FE00F07EFF2868407E91
:104E0000FCF780F905F03AF803F05AFD03F032FAA6
:104E100001F076FA01F042FAFFF786FA70BD000061
:104E20002E2E5C2E2E5C737461636B5C636F6E74EC
:104E3000726F6C6C65725C6C6C5F696E69742E630A
:104E40000000000000000A02E0430020645D000052
:104E500000000F02E4430020D95D0000C0B1002033
:104E6000F0B5044683B0012060760025A576E5768E
:104E70002577A5776077E5772020E5602062A58417
:104E8000E584656125602561A560A562E56225630D
:104E9000A586E5865620055320466030457085700E
:104EA000658725872030009085735F4827460290EC
:104EB000FF37007C613738736620B8705B48FF218C
:104EC0000068D131201AFBF755F9014638462038E1
:104ED000019081841C3003F0E7FF02983E46007C7D
:104EE000203630706720B8755048FF210068D131F6
:104EF000201AFBF73FF90146019801873046B5803B
:104F0000103803F0D1FF00982246C5732046A03028
:104F1000057145718571C571002080321063506341
:104F200043480168487CFB2800D3FB20009A108787
:104F3000C000009A70305087487CFB2800D3FB20CB
:104F4000009927468887C00000997030C8871B20C9
:104F5000C037FF21388049317980B8803548F980E1
:104F600081797176C179F175007A30760120F07619
:104F70003077B076B5750298FF21007C38766B20CB
:104F8000B8732A48D1310068201AFBF7F3F8388249
:104F900000982949C1652046C83003F085FF2046A6
:104FA000E030457005700198FF21457601980D228B
:104FB00085760198C1762146FC310F1D00917962FA
:104FC000FF2104202D310855384630300021B862C9
:104FD000FBF76AFC0099396401990420087238468D
:104FE0004C300D2200217864FBF75EFCB571F57141
:104FF0001248F560B0603846C03041780170B56243
:10500000F562356375637577B577FF34F577A1344D
:1050100025706570A570E5702571657185720572E2
:10502000457203B0F0BD0000C0B10020DC43002099
:10503000E043002090B100203075000020A107005F
:10504000104A1268D37B127C9B1801D10020704754
:1050500010B50246840702D082089200121D0A4C45
:105060002260FF24D13463439A18141A8C4207D962
:105070000648611A0143A22305A2002007F0B3FBF2
:10508000204610BDE0430020DC4300200000030266
:105090002E2E5C2E2E5C737461636B5C636F6E747A
:1050A000726F6C6C65725C6C6C5F636F6E6E2E639E
:1050B00000000000F8B5FDF7BFF90746FDF7B6F9A7
:1050C000574D01462868574EC27B007C101816D0F9
:1050D0003C46BA0702D0BC08A400241DFF22D132EE
:1050E000504300193460C41B8C4207D94E48611AE2
:1050F0000143A2234D4A002007F075FB2046FDF72F
:1051000067F92868417C877C0E3189088900133152
:10511000CC08E40020467843FCF7A2F80090002871
:1051200000D00120DC2342A24A4907F05CFB3B4649
:10513000224649480099FCF733FC002843D000245C
:105140004449DF2341183AA2204607F04CFB286867
:105150000024C17B007C081800284CDD3048006822
:10516000417CC67C0E31890889000B31CD08ED00E9
:1051700028467043FCF774F80090002800D0012006
:10518000EE232BA2354907F02EFBFF20D130274616
:1051900047432448334600682A463818FF30B93060
:1051A0000099FCF7FDFB01000FD000202B4DF123EF
:1051B0001FA2491907F017FB6814FDF717F906003D
:1051C00005D0012004E00124BAE70120EEE7002029
:1051D000F52317A2294607F006FB1248641C006855
:1051E0003818FF30813046640D480068C17B007C70
:1051F0000818A042B2DC1820FCF732F8040001D0F5
:10520000012000E00020FF23013309A2144907F028
:10521000EAFA012020710020607112480460F8BD94
:10522000E0430020DC430020000003029050000017
:105230002E2E5C2E2E5C737461636B5C636F6E74D8
:10524000726F6C6C65725C6C6C5F636F6E6E2E63FC
:105250000000000000000202A0B1002000000102D6
:10526000AA00010250440020F8B508264027B001EA
:10527000FBF7F6FF040001D0012000E000208325A9
:10528000AD0464231BA2294607F0ADFA33463A4623
:1052900021462148FCF784FB002820D00024411936
:1052A000672314A2204607F09EFAFF200130FBF787
:1052B000D7FF002800D001206A230EA2174907F06B
:1052C00092FA174D144800216861417268690172B1
:1052D0002020FBF7C5FF040003D0012002E00124D9
:1052E000DDE70020722303A20E4907F07CFAAC61CF
:1052F000F8BD00002E2E5C2E2E5C737461636B5C17
:10530000636F6E74726F6C6C65725C6C6C5F7363F0
:10531000616E2E630000000000B00020FF000C0250
:1053200010B00020EE000C0270B51A4D286800285D
:1053300000D001203B2318A2214907F054FA286825
:105340008079002824D0C000FBF76EFF040005D14F
:105350004121452310A2C90407F045FA286800211D
:105360008079C2002046FBF79FFA1648164A04606F
:105370002968897981800021C18011697F20C0005E
:105380008143124BE000C0188005800D0843106176
:1053900070BD0000E04300202E2E5C2E2E5C737446
:1053A00061636B5C636F6E74726F6C6C65725C6C66
:1053B0006C5F77686974656C6973742E63000000B4
:1053C00000000A026C440020400802500000EC7FFC
:1053D000F7B50E461349002409680128CD7B02D198
:1053E000087C2C462D18AC4216DA0F4FFF20D13026
:1053F000396860434018017E00290AD03D21095CCC
:10540000B14206D106223E300299FBF789FA002804
:1054100005D0641CAC42E9DB002003B0F0BD0120E4
:1054200003B0F0BDE0430020DC43002001480079D8
:1054300070470000EC43002010B503F087FD022800
:1054400001D3012010BD002010BD10B5FEF7FAF900
:1054500010BD10B5FEF7A6FB002010BDFF2230B531
:10546000D1325043244A83B01268801809D0027E9A
:10547000002A06D0427E012A03D0002A04D001234C
:1054800003E0022003B030BD00236A4653800323AB
:1054900013704B8893808B88D380CB88138102460E
:1054A000FF32C1325378127889889A1AD3B2134ADC
:1054B0001268D47B127CA218062462439A18C38C0B
:1054C000591851186A46891D5181016A40221143B9
:1054D0000162014601228031CA73029D019C009B3A
:1054E0008D614C610B61017F11430177694601F0C9
:1054F00042FF002003B030BDDC430020E043002029
:1055000070B50D46044603F04DFA00280AD06079C4
:10551000C00703D00D48C079002810D0207900289A
:1055200002D00EE00C2070BDA268002A07D0A1793D
:105530000020FFF74DFF002803D00B2070BD122084
:1055400070BD2946204600F03BFD70BDD8B100205B
:1055500010B500F02DFE10BD10B5FBF742FA00208B
:1055600010BD0000034A5388038090880880002003
:105570007047000090B1002010B5FFF705FC10BD8A
:10558000FF21D131484310B50849096840180AD0B5
:10559000017E002907D00022E0210A54062102F0F2
:1055A000FEF9002010BD022010BD0000DC430020E9
:1055B00070B50E46FF21D13148431F4988B00968B4
:1055C000441836D0207E002833D000252046009590
:1055D00001950295FF3003950495059506951022D7
:1055E00069460D30079506F0DCFD102204A930460F
:1055F00006F0D7FD204610223146EC30FBF72AF9A1
:10560000204604AA6946FC30FBF7EBF92646E03653
:105610003570204602F019FB0120FF2130705A310D
:1056200008550121206A090408432062002008B0BF
:1056300070BD022008B070BDDC430020FF22D132D3
:105640005043104A126880181AD0027E002A17D0E0
:10565000826D0A70C36D826D1B06120A1A434A706E
:10566000C36D826D1B04120C1A438A70C36D826D68
:105670001B02120E1A43CA70C06D087100207047D9
:1056800002207047DC43002030B40F4D2C68647C4E
:10569000FB2C03D81B2C02D21B2400E0FB2404802B
:1056A000E000703008802868407CFB2803D81B2865
:1056B00002D21B2000E0FB201080C0007030188058
:1056C00030BC002070470000E043002070B50D465C
:1056D000FF21D1314843084914460968401808D0D1
:1056E000017E002905D0FFF7DBFA2870207000202A
:1056F00070BD022070BD0000DC430020FF21D131CD
:1057000010B54843124982B0096844180DD0207E74
:1057100000280AD00F498869C96901910090607E0C
:10572000002805D0012808D00BE0022002B010BDEF
:105730006946204601F030FF03E06946204602F04A
:1057400059FA0120A034E071002002B010BD000021
:10575000DC430020A0B1002010B501F0F9FA10BD23
:1057600070B50C46054603F01DF9002803D01F2C28
:1057700003D9122070BD0C2070BD2146284602F0CE
:1057800009FB002070BD000010B5044603F00AF9C3
:1057900000280CD00848407AC00703D00748C079D9
:1057A000002806D0204602F007FB002010BD0C2088
:1057B00010BD122010BD000028B10020D8B100207B
:1057C000FFB506461F4889B00078139C17460D4662
:1057D000002808D103F0E6F8002804D0AE4205D92D
:1057E00011200DB0F0BD0C200DB0F0BD012F01D186
:1057F0000626354668460096019507720C99417257
:105800001299817262782178100E1202A3781143E6
:105810001A0C1B041943E37810431A0A1043227927
:105820001B0610436279194312021043059004913C
:105830006846149901761599417602F0D5FB00204F
:105840000DB0F0BDD8B10020FF2370B5D13358435F
:105850001B4B1B68C01815D0037E002B12D00B46C3
:105860001B3BE12B12D2FF2349339A420ED3154B37
:10587000154DD418154BAC4206D285231B019A4214
:1058800004D105E0022070BD9A4201D9122070BDFA
:105890000F4B1B685B7C8B4201D21C4600E00C4620
:1058A0001B2C01D21B2102E08B4200D21946034679
:1058B00080339987DA8701F08FFD002070BD0000EA
:1058C000DC430020B7F7FFFF4702000090420000D2
:1058D000E0430020024610B41B3AE12A15D2FF2211
:1058E0004932914211D30D4A0D4C8B180D4AA342F7
:1058F00004D285221201914207D101E0914204D8DD
:10590000094A1268527C824202D210BC12207047AF
:10591000064A5080918010BC00207047B7F7FFFF07
:105920004702000090420000E043002090B10020B8
:1059300030B40F4B9C690B46E5051343002D01DB8A
:105940009D0705D4240501D45B0701D48A4202D007
:1059500030BC11207047C30700D00021830700D559
:105960000022044B9871D9711A7230BC0020704724
:10597000A0B1002090B10020F1B52248224E046869
:10598000707982B00025A84238DD204F207E0028A3
:105990002ED0607E00282BD1052268460299FAF7A6
:1059A00059FF2046FF30C13041780078081AC1B253
:1059B0003868C27B007C1018062250430918522018
:1059C000E28C005B101808186946801DC8802046CC
:1059D0009C30019A0099426001600120A421085581
:1059E000207F0221084320776946204601F0A4FC6D
:1059F0007079FF34D1346D1CA842C7DC002003B09D
:105A0000F0BD0000DC430020D8B10020E0430020BE
:105A1000F8B5FF248646D13460433D4C0D462468DA
:105A2000069904190AD0207E002807D02046FF30AE
:105A30008130867D002E03D00C20F8BD0220F8BDF9
:105A4000344E1746B6691F43B446F605002E01DBF7
:105A5000BE070BD46646360501D47E0706D4012660
:105A6000002D01D1934201D1FF0801D01120F8BDD2
:105A7000EF0700D00022AF0700D500239A420FD1D4
:105A8000C77EBC467F1EBE40964211D16646032E9D
:105A900003D1867E8E4200D08176667E012E16D19D
:105AA000C27E71461346002000F04AFD0020F8BD7A
:105AB000B343DA0701D0012208E09A0701D5022298
:105AC00004E05A0701D5042200E0002213461646DE
:105AD0001E4308D06E46327073704576C2750376E9
